{
  "contractName": "Donations",
  "abi": [
    {
      "inputs": [
        {
          "internalType": "uint256",
          "name": "",
          "type": "uint256"
        }
      ],
      "name": "donations",
      "outputs": [
        {
          "internalType": "uint256",
          "name": "id",
          "type": "uint256"
        },
        {
          "internalType": "address",
          "name": "from",
          "type": "address"
        },
        {
          "internalType": "string",
          "name": "name",
          "type": "string"
        },
        {
          "internalType": "uint256",
          "name": "ammount",
          "type": "uint256"
        }
      ],
      "stateMutability": "view",
      "type": "function",
      "constant": true
    },
    {
      "inputs": [],
      "name": "donationsCount",
      "outputs": [
        {
          "internalType": "uint256",
          "name": "",
          "type": "uint256"
        }
      ],
      "stateMutability": "view",
      "type": "function",
      "constant": true
    },
    {
      "inputs": [
        {
          "internalType": "string",
          "name": "_name",
          "type": "string"
        },
        {
          "internalType": "uint256",
          "name": "_value",
          "type": "uint256"
        }
      ],
      "name": "newDonation",
      "outputs": [],
      "stateMutability": "payable",
      "type": "function",
      "payable": true
    },
    {
      "inputs": [],
      "name": "getDonations",
      "outputs": [
        {
          "components": [
            {
              "internalType": "uint256",
              "name": "id",
              "type": "uint256"
            },
            {
              "internalType": "address",
              "name": "from",
              "type": "address"
            },
            {
              "internalType": "string",
              "name": "name",
              "type": "string"
            },
            {
              "internalType": "uint256",
              "name": "ammount",
              "type": "uint256"
            }
          ],
          "internalType": "struct Donations.Donation[]",
          "name": "",
          "type": "tuple[]"
        }
      ],
      "stateMutability": "view",
      "type": "function",
      "constant": true
    },
    {
      "inputs": [],
      "name": "getBalance",
      "outputs": [
        {
          "internalType": "uint256",
          "name": "",
          "type": "uint256"
        }
      ],
      "stateMutability": "view",
      "type": "function",
      "constant": true
    }
  ],
  "bytecode": "0x60806040526000805534801561001457600080fd5b50610bdc806100246000396000f3fe60806040526004361061004a5760003560e01c806312065fe01461004f57806318aee7681461007a5780631f52259514610096578063e25f8416146100c1578063f8626af8146100ec575b600080fd5b34801561005b57600080fd5b5061006461012c565b60405161007191906105b0565b60405180910390f35b610094600480360381019061008f9190610751565b610134565b005b3480156100a257600080fd5b506100ab610217565b6040516100b891906105b0565b60405180910390f35b3480156100cd57600080fd5b506100d661021d565b6040516100e391906109aa565b60405180910390f35b3480156100f857600080fd5b50610113600480360381019061010e91906109cc565b6103de565b6040516101239493929190610a52565b60405180910390f35b600047905090565b604051806080016040528060005481526020013373ffffffffffffffffffffffffffffffffffffffff1681526020018381526020018281525060016000805481526020019081526020016000206000820151816000015560208201518160010160006101000a81548173ffffffffffffffffffffffffffffffffffffffff021916908373ffffffffffffffffffffffffffffffffffffffff16021790555060408201518160020190805190602001906101ee9291906104b6565b506060820151816003015590505060008081548092919061020e90610acd565b91905055505050565b60005481565b60606000805467ffffffffffffffff81111561023c5761023b6105fa565b5b60405190808252806020026020018201604052801561027557816020015b61026261053c565b81526020019060019003908161025a5790505b50905060005b6000548110156103d657600060016000838152602001908152602001600020905080604051806080016040529081600082015481526020016001820160009054906101000a900473ffffffffffffffffffffffffffffffffffffffff1673ffffffffffffffffffffffffffffffffffffffff1673ffffffffffffffffffffffffffffffffffffffff16815260200160028201805461031890610b45565b80601f016020809104026020016040519081016040528092919081815260200182805461034490610b45565b80156103915780601f1061036657610100808354040283529160200191610391565b820191906000526020600020905b81548152906001019060200180831161037457829003601f168201915b505050505081526020016003820154815250508383815181106103b7576103b6610b77565b5b60200260200101819052505080806103ce90610acd565b91505061027b565b508091505090565b60016020528060005260406000206000915090508060000154908060010160009054906101000a900473ffffffffffffffffffffffffffffffffffffffff169080600201805461042d90610b45565b80601f016020809104026020016040519081016040528092919081815260200182805461045990610b45565b80156104a65780601f1061047b576101008083540402835291602001916104a6565b820191906000526020600020905b81548152906001019060200180831161048957829003601f168201915b5050505050908060030154905084565b8280546104c290610b45565b90600052602060002090601f0160209004810192826104e4576000855561052b565b82601f106104fd57805160ff191683800117855561052b565b8280016001018555821561052b579182015b8281111561052a57825182559160200191906001019061050f565b5b509050610538919061057a565b5090565b604051806080016040528060008152602001600073ffffffffffffffffffffffffffffffffffffffff16815260200160608152602001600081525090565b5b8082111561059357600081600090555060010161057b565b5090565b6000819050919050565b6105aa81610597565b82525050565b60006020820190506105c560008301846105a1565b92915050565b6000604051905090565b600080fd5b600080fd5b600080fd5b600080fd5b6000601f19601f8301169050919050565b7f4e487b7100000000000000000000000000000000000000000000000000000000600052604160045260246000fd5b610632826105e9565b810181811067ffffffffffffffff82111715610651576106506105fa565b5b80604052505050565b60006106646105cb565b90506106708282610629565b919050565b600067ffffffffffffffff8211156106905761068f6105fa565b5b610699826105e9565b9050602081019050919050565b82818337600083830152505050565b60006106c86106c384610675565b61065a565b9050828152602081018484840111156106e4576106e36105e4565b5b6106ef8482856106a6565b509392505050565b600082601f83011261070c5761070b6105df565b5b813561071c8482602086016106b5565b91505092915050565b61072e81610597565b811461073957600080fd5b50565b60008135905061074b81610725565b92915050565b60008060408385031215610768576107676105d5565b5b600083013567ffffffffffffffff811115610786576107856105da565b5b610792858286016106f7565b92505060206107a38582860161073c565b9150509250929050565b600081519050919050565b600082825260208201905092915050565b6000819050602082019050919050565b6107e281610597565b82525050565b600073ffffffffffffffffffffffffffffffffffffffff82169050919050565b6000610813826107e8565b9050919050565b61082381610808565b82525050565b600081519050919050565b600082825260208201905092915050565b60005b83811015610863578082015181840152602081019050610848565b83811115610872576000848401525b50505050565b600061088382610829565b61088d8185610834565b935061089d818560208601610845565b6108a6816105e9565b840191505092915050565b60006080830160008301516108c960008601826107d9565b5060208301516108dc602086018261081a565b50604083015184820360408601526108f48282610878565b915050606083015161090960608601826107d9565b508091505092915050565b600061092083836108b1565b905092915050565b6000602082019050919050565b6000610940826107ad565b61094a81856107b8565b93508360208202850161095c856107c9565b8060005b8581101561099857848403895281516109798582610914565b945061098483610928565b925060208a01995050600181019050610960565b50829750879550505050505092915050565b600060208201905081810360008301526109c48184610935565b905092915050565b6000602082840312156109e2576109e16105d5565b5b60006109f08482850161073c565b91505092915050565b610a0281610808565b82525050565b600082825260208201905092915050565b6000610a2482610829565b610a2e8185610a08565b9350610a3e818560208601610845565b610a47816105e9565b840191505092915050565b6000608082019050610a6760008301876105a1565b610a7460208301866109f9565b8181036040830152610a868185610a19565b9050610a9560608301846105a1565b95945050505050565b7f4e487b7100000000000000000000000000000000000000000000000000000000600052601160045260246000fd5b6000610ad882610597565b91507fffffffffffffffffffffffffffffffffffffffffffffffffffffffffffffffff821415610b0b57610b0a610a9e565b5b600182019050919050565b7f4e487b7100000000000000000000000000000000000000000000000000000000600052602260045260246000fd5b60006002820490506001821680610b5d57607f821691505b60208210811415610b7157610b70610b16565b5b50919050565b7f4e487b7100000000000000000000000000000000000000000000000000000000600052603260045260246000fdfea26469706673582212202fe6c0d3866055007bfbfe7348f354a5210f5bbed1aad081f7ae9249677127a264736f6c63430008090033",
  "immutableReferences": {},
  "source": "pragma solidity 0.8.9;\n\ncontract Donations {\n    uint public donationsCount = 0;\n\n    struct Donation {\n        uint id;\n        address from;\n        string name;\n        uint ammount;\n    }\n\n    mapping(uint => Donation) public donations;\n\n    function newDonation(string memory _name, uint _value) public payable {\n        donations[donationsCount] = Donation(\n            donationsCount,\n            msg.sender,\n            _name,\n            _value\n        );\n\n        donationsCount++;\n    }\n\n    function getDonations() public view returns (Donation[] memory) {\n        Donation[] memory lDonations = new Donation[](donationsCount);\n        for (uint i = 0; i < donationsCount; i++) {\n            Donation storage lDonation = donations[i];\n            lDonations[i] = lDonation;\n        }\n        return lDonations;\n    }\n\n    function getBalance() public view returns (uint){\n        return address(this).balance;\n    }\n}\n",
  "sourcePath": "/Users/vladut.oprisor/Documents/Learning/Blockchain/TodoList/box/contracts/Donations.sol",
  "compiler": {
    "name": "solc",
    "version": "0.8.9+commit.e5eed63a.Emscripten.clang"
  },
  "schemaVersion": "3.4.3",
  "updatedAt": "2021-10-01T12:41:09.233Z",
  "networkType": "ethereum",
  "devdoc": {
    "kind": "dev",
    "methods": {},
    "version": 1
  },
  "userdoc": {
    "kind": "user",
    "methods": {},
    "version": 1
  }
}